:020000040800F2
:100000000050002035360008193500081D3500085D
:100010004535000847350008493500080000000054
:100020000000000000000000000000004B35000848
:100030004D350008000000004F350008513500081C
:100040007D3600087D3600087D36000855350008ED
:100050007D3600087D3600087D3600087D360008B4
:100060007D3600087D3600087D36000861350008C1
:100070007D3600087D3600087D3600087D36000894
:100080007D3600087D3600087D3600087D36000884
:100090007D3600087D3600087D3600087D36000874
:1000A0007D3600087D3600087D3600087D36000864
:1000B0006D3500087D3600087D3600087D36000865
:1000C0007D3600087D3600087D3600087D36000844
:1000D0007D3600087D3600087D3600087D36000834
:1000E0007D3600087D3600087D36000800000000DF
:1000F0000000000000000000000000000000000000
:0C01000000000000000000005FF808F1A3
:1001100010B5054C237833B9044B13B10448AFF341
:1001200000800123237010BDF401002000000000B6
:10013000688A000808B5034B1BB103490348AFF3B5
:10014000008008BD00000000F8010020688A000857
:10015000034613F8012B002AFBD1181A0138704707
:100160004FF0FF0C1CEAD0521EBF1CEAD15392EA9A
:100170000C0F93EA0C0F6FD01A4480EA010C400276
:1001800018BF5FEA41211ED04FF0006343EA5010D0
:1001900043EA5111A0FB01310CF00040B1F5000F12
:1001A0003EBF490041EAD3715B0040EA010062F1C1
:1001B0007F02FD2A1DD8B3F1004F40EBC25008BFAB
:1001C00020F00100704790F0000F0CF0004C08BFC9
:1001D00049024CEA502040EA51207F3AC2BFD2F196
:1001E000FF0340EAC250704740F400004FF00003A4
:1001F000013A5DDC12F1190FDCBF00F000407047DE
:10020000C2F10002410021FA02F1C2F1200200FA1B
:1002100002FC5FEA310040F1000053EA4C0308BFE2
:1002200020EADC70704792F0000F00F0004C02BF33
:10023000400010F4000F013AF9D040EA0C0093F0AE
:10024000000F01F0004C02BF490011F4000F013B08
:10025000F9D041EA0C018FE70CEAD15392EA0C0F76
:1002600018BF93EA0C0F0AD030F0004C18BF31F0E1
:10027000004CD8D180EA010000F00040704790F0B7
:10028000000F17BF90F0004F084691F0000F91F05B
:10029000004F14D092EA0C0F01D142020FD193EA21
:1002A0000C0F03D14B0218BF084608D180EA0100A9
:1002B00000F0004040F0FE4040F40000704740F085
:1002C000FE4040F44000704781F0004102E000BF72
:1002D00083F0004330B54FEA41044FEA430594EA06
:1002E000050F08BF90EA020F1FBF54EA000C55EA41
:1002F000020C7FEA645C7FEA655C00F0E2804FEA12
:100300005454D4EB5555B8BF6D420CDD2C4480EAF3
:10031000020281EA030382EA000083EA010180EA23
:10032000020281EA0303362D88BF30BD11F0004F71
:100330004FEA01314FF4801C4CEA113102D04042A7
:1003400061EB410113F0004F4FEA03334CEA1333E2
:1003500002D0524263EB430394EA050F00F0A780FA
:10036000A4F10104D5F1200E0DDB02FA0EFC22FAF5
:1003700005F2801841F1000103FA0EF2801843FAE9
:1003800005F359410EE0A5F120050EF1200E012ADA
:1003900003FA0EFC28BF4CF0020C43FA05F3C01818
:1003A00051EBE37101F0004507D54FF0000EDCF191
:1003B000000C7EEB00006EEB0101B1F5801F1BD33A
:1003C000B1F5001F0CD349085FEA30004FEA3C0C3E
:1003D00004F101044FEA445212F5800F80F09A8034
:1003E000BCF1004F08BF5FEA500C50F1000041EB38
:1003F000045141EA050130BD5FEA4C0C404141EB3C
:100400000101013C28BFB1F5801FE9D291F0000F36
:1004100004BF01460020B1FA81F308BF2033A3F1E5
:100420000B03B3F120020CDA0C3208DD02F1140CDC
:10043000C2F10C0201FA0CF021FA02F10CE002F117
:100440001402D8BFC2F1200C01FA02F120FA0CFC10
:10045000DCBF41EA0C019040E41AA2BF01EB045159
:10046000294330BD6FEA04041F3C1CDA0C340EDC57
:1004700004F11404C4F1200220FA04F001FA02F39A
:1004800040EA030021FA04F345EA030130BDC4F158
:100490000C04C4F1200220FA02F001FA04F340EA4D
:1004A0000300294630BD21FA04F0294630BD94F0FE
:1004B000000F83F4801306BF81F480110134013DE5
:1004C0004EE77FEA645C18BF7FEA655C29D094EA56
:1004D000050F08BF90EA020F05D054EA000C04BFD4
:1004E0001946104630BD91EA030F1EBF00210020BF
:1004F00030BD5FEA545C05D14000494128BF41F05E
:10050000004130BD14F580043CBF01F5801130BDC1
:1005100001F0004545F0FE4141F470014FF000004C
:1005200030BD7FEA645C1ABF194610467FEA655CFD
:100530001CBF0B46024650EA013406BF52EA03359F
:1005400091EA030F41F4002130BD00BF90F0000F8D
:1005500004BF0021704730B54FF4806404F13204C9
:100560004FF000054FF0000150E700BF90F0000F82
:1005700004BF0021704730B54FF4806404F13204A9
:1005800010F0004548BF40424FF000013EE700BF79
:1005900042004FEAE2014FEA31014FEA02701FBF09
:1005A00012F07F4393F07F4F81F06051704732F03B
:1005B0007F4208BF704793F07F4F04BF41F4002192
:1005C000704730B54FF4607401F0004521F00041F0
:1005D0001CE700BF50EA010208BF704730B54FF07A
:1005E00000050AE050EA010208BF704730B511F07B
:1005F000004502D5404261EB41014FF4806404F1B3
:1006000032045FEA915C3FF4D8AE4FF003025FEA38
:10061000DC0C18BF03325FEADC0C18BF033202EBBC
:10062000DC02C2F1200300FA03FC20FA02F001FA16
:1006300003FE40EA0E0021FA02F11444BDE600BFB9
:1006400070B54FF0FF0C4CF4E06C1CEA11541DBF68
:100650001CEA135594EA0C0F95EA0C0F00F0DEF833
:100660002C4481EA030621EA4C5123EA4C5350EA18
:10067000013518BF52EA033541F4801143F4801369
:1006800038D0A0FB02CE4FF00005E1FB02E506F0FA
:100690000042E0FB03E54FF00006E1FB03569CF04F
:1006A000000F18BF4EF0010EA4F1FF04B6F5007F55
:1006B00064F5407404D25FEA4E0E6D4146EB0606C7
:1006C00042EAC62141EA55514FEAC52040EA5E5050
:1006D0004FEACE2EB4F1FD0C88BFBCF5E06F1ED8FA
:1006E000BEF1004F08BF5FEA500E50F1000041EB31
:1006F000045170BD06F0004646EA010140EA0200DE
:1007000081EA0301B4EB5C04C2BFD4EB0C0541EAFF
:10071000045170BD41F480114FF0000E013C00F314
:10072000AB8014F1360FDEBF002001F0004170BD38
:10073000C4F10004203C35DA0C341BDC04F1140451
:10074000C4F1200500FA05F320FA04F001FA05F2DD
:1007500040EA020001F0004221F0004110EBD370AA
:1007600021FA04F642EB06015EEA430E08BF20EAD6
:10077000D37070BDC4F10C04C4F1200500FA04F379
:1007800020FA05F001FA04F240EA020001F000410B
:1007900010EBD37041F100015EEA430E08BF20EA7E
:1007A000D37070BDC4F1200500FA05F24EEA020EC6
:1007B00020FA04F301FA05F243EA020321FA04F0F5
:1007C00001F0004121FA04F220EA020000EBD370AC
:1007D0005EEA430E08BF20EAD37070BD94F0000FAC
:1007E0000FD101F00046400041EB010111F4801FE0
:1007F00008BF013CF7D041EA060195F0000F18BF91
:10080000704703F00046520043EB030313F4801FCC
:1008100008BF013DF7D043EA0603704794EA0C0F86
:100820000CEA135518BF95EA0C0F0CD050EA41069C
:1008300018BF52EA4306D1D181EA030101F0004119
:100840004FF0000070BD50EA410606BF1046194641
:1008500052EA430619D094EA0C0F02D150EA01364D
:1008600013D195EA0C0F05D152EA03361CBF10468E
:1008700019460AD181EA030101F0004141F0FE412D
:1008800041F470014FF0000070BD41F0FE4141F4B1
:10089000780170BD70B54FF0FF0C4CF4E06C1CEAB1
:1008A00011541DBF1CEA135594EA0C0F95EA0C0F66
:1008B00000F0A7F8A4EB050481EA030E52EA033521
:1008C0004FEA013100F088804FEA03334FF0805542
:1008D00045EA131343EA12634FEA022245EA11156F
:1008E00045EA10654FEA00260EF000419D4208BF20
:1008F000964244F1FD0404F5407402D25B084FEACD
:100900003202B61A65EB03055B084FEA32024FF478
:1009100080104FF4002CB6EB020E75EB030E22BFD5
:10092000B61A754640EA0C005B084FEA3202B6EB95
:10093000020E75EB030E22BFB61A754640EA5C0044
:100940005B084FEA3202B6EB020E75EB030E22BFD4
:10095000B61A754640EA9C005B084FEA3202B6EBD5
:10096000020E75EB030E22BFB61A754640EADC0094
:1009700055EA060E18D04FEA051545EA16754FEAF6
:1009800006164FEAC30343EA52734FEAC2025FEA14
:100990001C1CC0D111F4801F0BD141EA00014FF0A3
:1009A00000004FF0004CB6E711F4801F04BF014374
:1009B0000020B4F1FD0C88BFBCF5E06F3FF6AFAE90
:1009C000B5EB030C04BFB6EB020C5FEA500C50F120
:1009D000000041EB045170BD0EF0004E4EEA1131A3
:1009E00014EB5C04C2BFD4EB0C0541EA045170BDAA
:1009F00041F480114FF0000E013C90E645EA060EEE
:100A00008DE60CEA135594EA0C0F08BF95EA0C0F1B
:100A10003FF43BAF94EA0C0F0AD150EA01347FF463
:100A200034AF95EA0C0F7FF425AF104619462CE73A
:100A300095EA0C0F06D152EA03353FF4FDAE10469D
:100A4000194622E750EA410618BF52EA43067FF4EE
:100A5000C5AE50EA41047FF40DAF52EA43057FF47E
:100A6000EBAE12E74FF0FF3C06E000BF4FF0010C89
:100A700002E000BF4FF0010C4DF804CD4FEA410CED
:100A80007FEA6C5C4FEA430C18BF7FEA6C5C1BD0BA
:100A900001B050EA410C0CBF52EA430C91EA030F3B
:100AA00002BF90EA020F0020704710F1000F91EA98
:100AB000030F58BF994208BF90422CBFD8176FEA66
:100AC000E37040F0010070474FEA410C7FEA6C5C34
:100AD00002D150EA013C07D14FEA430C7FEA6C5C3B
:100AE000D6D152EA033CD3D05DF8040B704700BF67
:100AF0008446104662468C461946634600E000BFB5
:100B000001B5FFF7B7FF002848BF10F1000F01BD86
:100B10004DF808EDFFF7F4FF0CBF012000205DF851
:100B200008FB00BF4DF808EDFFF7EAFF34BF0120D6
:100B300000205DF808FB00BF4DF808EDFFF7E0FF6F
:100B400094BF012000205DF808FB00BF4DF808EDC0
:100B5000FFF7CEFF94BF012000205DF808FB00BF27
:100B60004DF808EDFFF7C4FF34BF012000205DF809
:100B700008FB00BF4FEA410C7FEA6C5C02D150EAEF
:100B8000013C0AD14FEA430C7FEA6C5C02D152EA85
:100B9000033C02D14FF0000070474FF00100704756
:100BA0004FEA410212F5001215D211D56FF4787395
:100BB000B3EB625212D94FEAC12343F0004343EA38
:100BC000505311F0004F23FA02F018BF4042704713
:100BD0004FF00000704750EA013005D111F000409D
:100BE00008BF6FF0004070474FF00000704700BF33
:100BF00080F0004002E000BF81F0004142001FBFD2
:100C00005FEA410392EA030F7FEA226C7FEA236CDA
:100C10006AD04FEA1262D2EB1363C1BFD2184140CF
:100C200048404140B8BF5B42192B88BF704710F065
:100C3000004F40F4000020F07F4018BF404211F008
:100C4000004F41F4000121F07F4118BF494292EA70
:100C5000030F3FD0A2F1010241FA03FC10EB0C009C
:100C6000C3F1200301FA03F100F0004302D5494229
:100C700060EB4000B0F5000F13D3B0F1807F06D3D6
:100C800040084FEA310102F10102FE2A51D2B1F1CE
:100C9000004F40EBC25008BF20F0010040EA0300C3
:100CA0007047490040EB0000013A28BFB0F5000F43
:100CB000EDD2B0FA80FCACF1080CB2EB0C0200FAF9
:100CC0000CF0AABF00EBC25052421843BCBFD04048
:100CD0001843704792F0000F81F4000106BF80F4C2
:100CE00000000132013BB5E74FEA41037FEA226C85
:100CF00018BF7FEA236C21D092EA030F04D092F050
:100D0000000F08BF0846704790EA010F1CBF002083
:100D1000704712F07F4F04D1400028BF40F00040E0
:100D2000704712F100723CBF00F50000704700F000
:100D3000004343F0FE4040F4000070477FEA226227
:100D400016BF08467FEA23630146420206BF5FEAF8
:100D5000412390EA010F40F4800070474FF00003F8
:100D600004E000BF10F0004348BF40425FEA000CBF
:100D700008BF704743F0964301464FF000001CE067
:100D800050EA010208BF70474FF000030AE000BFBD
:100D900050EA010208BF704711F0004302D54042FB
:100DA00061EB41015FEA010C02BF8446014600206D
:100DB00043F0B64308BFA3F18053A3F50003BCFA88
:100DC0008CF2083AA3EBC25310DB01FA02FC634435
:100DD00000FA02FCC2F12002BCF1004F20FA02F23C
:100DE00043EB020008BF20F00100704702F120022F
:100DF00001FA02FCC2F1200250EA4C0021FA02F290
:100E000043EB020008BF20EADC7070474FF0FF3C64
:100E100006E000BF4FF0010C02E000BF4FF0010CF4
:100E20004DF804CD4FEA40024FEA41037FEA226CBD
:100E300018BF7FEA236C11D001B052EA530C18BFDF
:100E400090EA010F58BFB2EB030088BFC81738BF44
:100E50006FEAE17018BF40F0010070477FEA226C32
:100E600002D15FEA402C05D17FEA236CE4D15FEA2E
:100E7000412CE1D05DF8040B704700BF8446084662
:100E80006146FFE70FB5FFF7C9FF002848BF10F123
:100E9000000F0FBD4DF808EDFFF7F4FF0CBF012068
:100EA00000205DF808FB00BF4DF808EDFFF7EAFFF2
:100EB00034BF012000205DF808FB00BF4DF808EDAD
:100EC000FFF7E0FF94BF012000205DF808FB00BFA2
:100ED0004DF808EDFFF7D2FF94BF012000205DF828
:100EE00008FB00BF4DF808EDFFF7C8FF34BF012035
:100EF00000205DF808FB00BF42000ED2B2F1FE4FA9
:100F00000BD34FF09E03B3EB126209D44FEA0023D8
:100F100043F0004323FA02F070474FF0000070479F
:100F200012F1610F01D1420202D14FF0FF30704740
:100F30004FF00000704700BF2DE9F84F0025DFF8A3
:100F4000C890324C324E334FDFF8CC80DFF8CCB053
:100F5000DFF8CCA000BF00BF00BFB9F80410D9F87B
:100F6000000003F0B9F801222B4B690000BB9AF88E
:100F70000000294419440A5498F8000021880128E7
:100F80000BF8012B03D198F8010001281CD0002098
:100F90000BF8010CA9B9234839780078884297BF2B
:100FA0000021013131702180397018E00125D1E72D
:100FB0004FF0000C9AF800002944194401F800C0D1
:100FC000DAE701213170E6E7B1F5877F05D302202A
:100FD00030704FF6FF70814201D00131218009F15C
:100FE000080902340136013708F10308002DDDD06D
:100FF0009AF80030012B8EBF00230133DBB28AF850
:101000000030BDE8F88F00BF408B00081A020020B6
:101010001E020020100200201202002020020020E8
:101020001802002000000020014B185C704700BF30
:101030001E020020034B33F81000003818BF0120B7
:10104000704700BF1A02002008B502F07BF80023A9
:10105000064AD15C11B91BB90123FAE70023F8E76E
:101060004FF4C870BDE8084002F052BB1E020020D9
:10107000014B1870704700BF00000020134A38B5BC
:101080001349136805468B4298BF01334FF00201A4
:1010900098BF136004F064FC012184B2284604F078
:1010A0005FFC4FF6FF739C4207D0621C92B2284649
:1010B000BDE83840022104F04BBC421C92B2012131
:1010C000284604F045FC0022F1E700BF580200204A
:1010D000037E050037B52021184802F0FDFF184CAB
:1010E00040BB237843BB02F02DF8362301220521B3
:1010F000CDE9003218205023124A01F051FE01F0D0
:10110000FFFF0E4D2021284602F0E6FF38B900BF50
:10111000FFF790FF40B101232370FFF795FF03B065
:10112000BDE8304002F00EB80120FFF783FF002831
:10113000E8D0F0E70023237003B030BD0008014081
:10114000440200207EB7000838B50568044608460A
:10115000FFF708FE2946FFF74FFD0549FFF700F8A6
:101160002946FFF74BFD2060FFF7C6FE80B238BD71
:10117000CDCCCC3D2DE9FF410024134D0646042281
:1011800069461248CDE90044CDE902442C7002F0D2
:10119000D3FB2B7803B9FEE76D46DFF8348002AF4E
:1011A000404635F8021BFFF7CFFF0134042C27F827
:1011B000020B08F10408F3D104AB03EB460636F842
:1011C000080C04B0BDE8F0815C020020B4030020EC
:1011D0002802002010B504468C421846029B0ADD06
:1011E0009442BFBF641A1B1A5C43521AB6BF94FBE9
:1011F000F2F41846001910BD30B504469DB00D46F6
:101200006422294903A805F0EAFB7CB1012C27D010
:101210000020284400B255286FF02203A8BF5520B3
:101220009842B8BF184640B21DB030BD2046FFF707
:10123000A1FFFFF797FD1D49FEF792FFFFF7A8F901
:1012400002460B4614A1D1E90001FFF741F814A3AF
:10125000D3E90023FFF71EFBFFF7A2FC00B2D8E79B
:101260000320FFF787FF0DF13E0333F9022F904271
:1012700003DD0134192CF8D118241CAB03EB440313
:10128000194633F9644C00B2009433F9663C31F9E5
:10129000341CFFF79FFFE1E7E17A14AE47E1F63F28
:1012A00022FDF675E09C713F808A00083333533A83
:1012B00073B5044602200D461646FFF75BFF210179
:1012C0002B464FF40462009600B2FFF783FFC4B2CE
:1012D000204601F0FDFE204602B070BD08B5A0B169
:1012E000012817D001F02EFF0A21084601F09CFDCD
:1012F00001220A490A4801F0EBFD01F001FFBDE8B7
:1013000008404FF4967002F003BA0649044805F00D
:101310006DFAE7E70A460449F8E700BF1400002029
:101320005D02002064B3000876B300082DE9F043A5
:10133000044687B0884617461D4601223223A02165
:1013400020489DF8389003F021FC40B10021502244
:101350000846FFF7C3FF284607B0BDE8F083012326
:1013600005210DF11706CDE901318DF81700224650
:10137000A0211448009603F0CDFA1E2002F0C8F90F
:10138000B9F1000F1AD09DF91700404501DBB842B2
:10139000E2DD214650220120FFF7A0FF01230522B4
:1013A000A021CDE901320096224606488DF817505B
:1013B00003F020FA1E2002F0ABF9CCE79DF81700ED
:1013C000E3E700BF1C0300202DE9F34180460D46F2
:1013D000174601A9002213481E4604F0EBF83C22F0
:1013E0004FF461639DF8054055435443724303FB3A
:1013F000085003FB07229DF80410904203FB0144B0
:1014000009D284420BD3944209D2012001F06EFE2E
:1014100002B0BDE8F0819442F7D38442F5D20020B7
:10142000F4E700BF0803002038B50546044614BBA6
:1014300001F058FF0020FFF7F7FD0028FAD1002047
:10144000FFF7F2FD20B90120FFF7EEFD0028F6D0EE
:1014500001F036FF0024E0B201F03AFE013423200F
:1014600002F056F9E3B29D42F5D2BDE838404FF4A0
:101470007A7002F04DB9204601F02AFE013C23208B
:1014800002F046F9E4B2D2E707B5002201A90A4802
:1014900004F090F89DF804300022162B8EBF002334
:1014A0000133DBB201A904488DF8043004F030F8B0
:1014B00003B05DF804FB00BF0803002007B500225D
:1014C00001A90C4804F076F89DF8043000223A2B6C
:1014D0008CBF00239DF8053001A99CBF0133DBB20E
:1014E00004488DF805308DF8062004F011F803B09B
:1014F0005DF804FB0803002070B5064602F002F90F
:1015000005460020FFF790FD20B102F0FBF8401BDC
:1015100080B270BD0120FFF787FD04460028F4D19A
:1015200002F0F0F8401BB042EBD92046F1E7000092
:101530002DE9F04F00259DB05C22884905A805F0F3
:101540004EFA01F0FFFD03232E462C46844FDFF8B0
:10155000148200934FF0000905ABDFF80CB203EBE7
:10156000850A009A5FFA89F393427DD307233246B6
:101570007E49384605F03AF92A215B2001F054FCF7
:1015800001224146384601F0A3FC4FF00009DFF884
:10159000E0A1B9F1010F00F09A80B9F1020F00F05B
:1015A00098800C210A2001F03FFC09F10109012279
:1015B0004146504601F08CFCB9F1030FE9D1032CF0
:1015C0008CBF4FF0000B6B4B4FF00A0098BF13F825
:1015D00004B0594601F028FC01224146664801F05A
:1015E00077FC01F08DFD0020FFF724FD0028FAD1E3
:1015F0001CAA2B1902EB830353F85C3C012C184600
:101600008CBF4FF009094FF00E090193FEF7A0FDC2
:10161000C3B20293A3EB09030393029B99455AD3E8
:101620000020FFF707FD002800F084800020FFF76E
:1016300001FD30B1009B013B9C4280F2828001346D
:10164000E4B20120FFF7F6FC30B1FFF7FDFC6019B2
:10165000C0B21DB0BDE8F08F062E92BF0323C5F1C6
:101660001703DBB2009375E7032B07D8DFE803F01D
:10167000021D1F210C21142001F0D6FB5AF8043B57
:1016800018460193FEF764FDB9F1010F019BC0B24A
:1016900011D80E2811D90E225946023A384605F0C3
:1016A000A5F80122414638460AE01B21E3E72A213A
:1016B000E1E73C21DFE7092807D801224146184627
:1016C00001F006FC09F101094BE70922E4E71B21BF
:1016D00068E72A2166E74FF42F70FFF70DFF4FF000
:1016E000000A039A5FFA8AF3934299DC019A23492C
:1016F000134438464A4605F079F85946142001F05B
:1017000093FB01224146384601F0E2FB01F0F8FC70
:101710004FF4FA70FFF7F0FE0020FFF78BFC002873
:101720007FF47EAF0120FFF785FC0AF1010A002853
:10173000D7D075E70120FFF77DFC00283FF46DAF9F
:1017400074E7062E8DBF0025013603352E469CBF5B
:10175000F6B2EDB2002401F0F5FC72E7E48A00086D
:101760005D0200201400002087B300088EB300083B
:1017700042B4000841B6000895B3000897B30008CA
:1017800008B5034802F00AFA0122024B1A7008BD9C
:10179000B40300205C020020F8B50B4F0546384624
:1017A00016460C46FEF7D4FC2B7840344343A4EB9A
:1017B00053043146A0B201F037FB29463846BDE854
:1017C000F840012201F084BB5D02002070B50523C2
:1017D0000126002586B0CDE901630DF117030F2224
:1017E000A02100931B4833468DF8175003F092F860
:1017F0001E2001F08DFF9DF817304BB302211648D3
:1018000004F0AEF831460446134804F0A9F80A2261
:101810009DF81730A4B253434FF4616244EA004488
:10182000B4FBF2F4A34213D801F08CFC0B490C4832
:1018300005F0BFF81D222946094B0A48FFF7ACFF07
:1018400001F05EFC42F21070FFF756FEFFF7FCFB62
:1018500006B070BD1C030020080300209CB30008E4
:101860005D020020140000202DE9F74F05460120FD
:10187000FFF780FC04462846FFF774FA5149FEF74B
:101880006FFC06462046FFF76DFA4F49FEF768FCED
:101890004E49FEF765FC4E49FFF7B0F93146FFF7B8
:1018A000ADF94C4907460446FFF7FEFA4A4D28B900
:1018B00038464A49FFF716FB00287FD02B88B3F53E
:1018C000FA7F76D3464F3B78002B74D101F03AFC77
:1018D000122301220E21CDE9003235201623414A80
:1018E00001F05EFADFF8ECA0DFF8DCB051462046EC
:1018F000FFF7DAFA28B920463849FFF7F3FA00284B
:1019000045D00120FFF736FCFFF72CFA5946FEF7C9
:1019100027FC2E49FEF724FC2D49FFF76FF93146CD
:10192000FFF76CF9044601F0EDFEDFF8BC80D8F853
:101930000030C01AB0F57A7F21D32046FEF728FE8A
:101940000B462A490246009129482A49DFF8A89007
:1019500004F04CFF264B232200212848FFF71CFFF0
:1019600001F0CEFB99F80030C3B1002001F0BEFBBE
:10197000002389F8003001F0C5FEC8F800000020FF
:10198000FFF752FB78B101233B70FFF75DFB0023AB
:101990002B8003B0BDE8F04F01F0D4BB012001F073
:1019A000A5FB0123E5E70120FFF73EFB00289DD0C2
:1019B000E9E701332B8003B0BDE8F08F084B2880A6
:1019C0001870F8E7CDCC4C3E3333533A85EBE14009
:1019D000CDCC4C3F3333434142020020CDCC744147
:1019E0004002002006BA00083C020020AEB3000806
:1019F0005D020020A6B30008380200200C00002081
:101A00002DE9F04186B004460D4616461F4601F00A
:101A100099FBDFF8E8801B210A2001F005FA234634
:101A20000D9A3749404604F0E1FE0122354940460F
:101A300001F04EFA01F064FB0A2001F069FE00207B
:101A4000FFF7F2FA20B90120FFF7EEFA0028F6D0EE
:101A50000120FFF7E9FA20B1B442AEBF2C460134B1
:101A600024B20020FFF7E0FA012805D1AC42D2BF32
:101A7000344604F1FF3424B20020FFF7D5FA0228DF
:101A8000C9D101F05FFB32230122A0211E4803F0DF
:101A90007DF880BB012F2CD10523CDE901730DF119
:101AA0001703A021BDF83020009317483B468DF85E
:101AB000174002F09FFE1E2001F02AFE13490F4836
:101AC00004F077FF1B2200210C4B0E48FFF764FE49
:101AD00001F016FB0120FFF7A7FA0028FAD140F623
:101AE000340001F015FE01F02DFB204606B0BDE8E4
:101AF000F0810749E3E70749E1E700BF5D02002005
:101B0000B1B30008140000201C030020B8B3000883
:101B1000C6B30008D3B300082DE9F8436426DFF804
:101B20008C90DFF88C804643D9F80070D8F80040DC
:101B300015463B1B9E4231D880B301F003FB40F6B3
:101B4000B83001F0E5FDEDB21A491B4804F031FF51
:101B500005F10F02184BD2B200211848FFF71CFE06
:101B60001749154804F025FF05F123020021124B07
:101B7000D2B21248FFF710FE01F0C2FA44F620601C
:101B8000FFF7BAFCFFF760FAD9F80030C8F8003068
:101B900001F0D8FA4FF4C87001F0BAFD3C23E01B05
:101BA0003044B0FBF3F080B2BDE8F8835802002067
:101BB00024020020DEB300085D0200200C0000209B
:101BC000E6B300082DE9F04186B0064601F0BAFA06
:101BD000A94BAA491A68AA4804F008FE0C210F2054
:101BE00001F022F90122A749A54801F071F901F09D
:101BF000A1FDA5490246A24804F0F8FD1B210F20D3
:101C000001F012F901229F499D4801F061F901F0AC
:101C100095FD9E4902469A4804F0E8FD2A210F20CE
:101C200001F002F901229749954801F051F901F0BC
:101C300067FA40F6340001F06BFD282501F082FAC6
:101C40008F4C904F0020FFF795FA80460320FFF756
:101C500091FA424603468E49204604F0C7FD0C2106
:101C60000F2001F0E1F801223946204601F030F959
:101C70000120FFF77FFA87490246204604F0B6FDAF
:101C80001B210F2001F0D0F801223946204601F037
:101C90001FF90220FFF76EFA7F490246204604F042
:101CA000A5FD2A210F2001F0BFF801223946204668
:101CB00001F00EF9013D01F023FAC82001F028FDE2
:101CC00015F0FF05BED101F03DFA2824734F6C4D8D
:101CD0000C21002001F0A8F801226A49384601F0E1
:101CE000F7F8002205A96E4803F064FC9DF8163051
:101CF0009DF814206B49009328469DF8153004F098
:101D000075FD0C210F2001F08FF801225D49284656
:101D100001F0DEF81B21002001F086F8012259496C
:101D2000384601F0D5F8604B60491A68284604F03F
:101D30005DFD1B210F2001F077F801225149284653
:101D400001F0C6F82A21002001F06EF801224D4969
:101D5000384601F0BDF8002230461146FFF7DCFEA0
:101D600053490246284604F041FD2A210F2001F084
:101D70005BF801224349284601F0AAF8013C01F032
:101D8000BFF9C82001F0C4FC14F0FF04A0D1052362
:101D90008DF813400124CDE901430DF113030F2207
:101DA000A02100934348234602F0B4FD1E2001F019
:101DB000AFFC01F0C7F90C21162001F035F82246DE
:101DC00030493D4801F084F828252E4F2C4E1B2128
:101DD000002001F029F801223946304801F078F856
:101DE0000A229DF8133035495A43304604F0FEFC70
:101DF0001B210F2001F018F801223946304601F06E
:101E000067F80221264803F0ABFD0121044624486F
:101E100003F0A6FDA4B244EA00442A21002001F008
:101E200003F8012239461D4801F052F84FF461636E
:101E3000B4FBF3F203FB12443C23A4B2B4FBF3F370
:101E40001F49304604F0D2FC2A210F2000F0ECFF9D
:101E500001223946304601F03BF8013D01F050F9CE
:101E6000C82001F055FC15F0FF05B0D101F06AF96A
:101E700006B0BDE8F08100BF1C000020F1B30008EF
:101E80005D02002014000020F8B3000800B4000830
:101E90000BB400081BB4000826B4000831B40008D5
:101EA0000803002044B400085802002059B4000878
:101EB00068B400081C03002077B4000884B400084C
:101EC00090B400082DE9FF47054601201F4616463D
:101ED0000C46FFF74FF9FEF745FF5C49FEF740F966
:101EE000DFF86CA1804600225A4803A903F062FB88
:101EF0009AF90030DFF86091AB4203D199F90030D4
:101F0000A34205D001F01EF98AF8005089F800407C
:101F1000012E7CD0022E00F0838096B99DF80E3001
:101F20009DF80C2000934D499DF80D304C4804F06D
:101F30005DFC294604F10A02494B4A48D2B2FFF738
:101F40002BFC0023ADB2A4B204F12409EE1DB6B2FD
:101F50001FFA89F9363405F119023046009392B21E
:101F6000A3B2494601F052F812230122002FCDE915
:101F7000003230B20FFA89F461DB3B4A214600F0AF
:101F80000FFF3A463949364804F030FC05F11B0092
:101F9000494680B200F048FF01223249304800F043
:101FA00097FF40463249FEF7DBF83249FEF726FE3E
:101FB00006469DF93000FEF7D5FE2F49FEF7D0F812
:101FC00001463046FEF71AFEFEF7E2FA02460B46DD
:101FD00023482A4904F00AFC0126122305F13700A0
:101FE0002146CDE90036264A162300B24E3500F0D0
:101FF000D7FE4946A8B200F017FF324619491848E3
:1020000000F066FF01F07CF804B0BDE8F0879DF8B1
:102010000D309DF80C201B49114804F0E7FB88E7C0
:102020009DF80D309DF80C2016490D4804F0DEFB9C
:1020300004F10A0229460A4B1348D2B27FE7134A39
:10204000214600F0ADFE7A429CE700BF3333533A9D
:102050002302002008030020220200204AB40008C6
:102060005D0200200C000020D0B900089FB40008D9
:1020700085EBE140CDCC4C3FCDCC4C3EA4B4000828
:1020800006BA00084FB40008040000209AB90008FE
:10209000F8B50D464FF46161164B06461B68164CA9
:1020A000B3FBF1F2D2B201FB12333C21B3FBF1F3EB
:1020B000124F0A3520461249DBB204F097FBEAB210
:1020C000234631463846FFF767FB01F019F840F622
:1020D0003400FFF711FA20460A4904F06AFCA9B25D
:1020E000002000F0A1FE39462046BDE8F84001225C
:1020F00000F0EEBE580200205D0200200400002027
:10210000ABB400083BB400080A2138B50E4D0846B0
:102110000E4C00F089FE012229460D4800F0D8FE41
:1021200000F0EEFF20460B4904F043FC0A2108466C
:1021300000F07AFE29462046012200F0C9FEBDE8E3
:10214000384000F0DDBF00BF140000205D02002019
:1021500034B40008B7B4000810B594B024220021AC
:102160000BA804F0A6FB1422102400210DEB0200A2
:1021700004F09FFB2246002101A804F09AFB0623ED
:102180000A9301230AA8CDE90D330F9402F0B4FDA0
:1021900008B1FFF7B9FF00210F2305A8CDE90531EC
:1021A000CDE90711099102F06BFF08B1FFF7ACFF11
:1021B0004FF480730322CDE90123002301A8039388
:1021C00003F01AF808B1FFF79FFF14B010BD00002C
:1021D0002DE9F04F9C4E9FB001F076FAFFF7BCFF5F
:1021E0001022002117A804F064FBB369002243F019
:1021F0001003B361B369032103F010031193119B22
:10220000B369924843F02003B361B369002403F03B
:1022100020031293129BB369012543F00403B361B9
:10222000B369022703F004031393139BB36943F0CC
:102230000803B361B36903F008031493149B01F01E
:1022400051FF00228021824801F04CFF03237F4888
:1022500017A9CDE91735CDE9194701F065FE20230F
:102260007B4817A9CDE91734199401F05DFE80234E
:10227000774817A9CDE91735CDE9194701F054FE84
:102280004FF44073734817A9CDE91734199401F03E
:102290004BFE714A294653686C4843F0E06343F4AF
:1022A00000435360224601F01DFF2246394667482D
:1022B00001F018FF736922462B437361736921464D
:1022C0002B400B201093109B01F0A8FC0B2001F079
:1022D000D5FC6248624BCDE9174403604FF480732C
:1022E00083604FF46023C36104231994047304755D
:1022F0004460036101F0D4FB08B1FFF705FF102330
:10230000CDE917350323554817A9199301F05AFA57
:1023100008B1FFF7F9FE4FF0000C02234F4817A950
:10232000CDE917C301F04EFA08B1FFF7EDFE012722
:1023300003234A4817A9CDE9177301F043FA08B1FE
:10234000FFF7E2FE02250423444817A9CDE91753FD
:1023500001F038FA08B1FFF7D7FE4248424B434C30
:102360004FF48042C0E900430023C0E90233C0E9D2
:102370000423C0E90633036202F0BAF808B1FFF79C
:10238000C3FE01228021324801F0ACFE00F0E2FEE3
:102390001022002117A804F08CFA00234FF080428D
:1023A00033484FF6FF71C0E900234FF48072CDE946
:1023B0001533C0E903128360836103F0F9FB08B1B0
:1023C000FFF7A2FE4FF48053294817A9179303F093
:1023D00025FC08B1FFF798FE0023254815A9CDE993
:1023E000153303F0B5FC08B1FFF78EFE1022002173
:1023F00017A804F05EFA00231E481F4ACDE91533E2
:10240000C0E900234FF6FF72C0E90533C0E903239A
:10241000836003F0CDFB08B1FFF776FE4FF48053E5
:10242000144817A9179303F0F9FB08B1FFF76CFEE6
:102430000023104815A9CDE9153303F089FCE8B154
:10244000FFF762FE1AE000BF0010024000140140D6
:1024500000080140000C014000000140B4030020CE
:10246000002401401C030020801A06000054004094
:1024700078020020C0020020002C014001204FF013
:10248000010800F025FE00F05DFE002305226FF03C
:1024900004011846CDF80080FEF748FF002305220E
:1024A0006FF0040147B2CDF8008040460024FEF7EB
:1024B0003DFF23461722214645B200940220FEF735
:1024C00035FFC3B23B2221460593032023460094E7
:1024D000FEF72CFFC3B21722214606930420434681
:1024E0000094FEF723FFC3B23B2221460793052049
:1024F00043460094FEF71AFFC3B21E226FF01D017F
:10250000089306202346CDF80080FEF70FFF43B264
:102510001E226FF01D01049307202346CDF8008092
:10252000FEF704FF4346FF2241464FFA80F900942C
:102530000820FEF7FBFEC3B20A93FF2341461A466A
:1025400009200094FEF7F2FEC3B2842221460B93C9
:102550000D2023460094FEF7E9FEC3B24246214611
:1025600009930E2023460094FEF7E0FE2346FF2247
:1025700021465FFA80FB00940A20FEF7D7FEC3B223
:1025800022466FF07E010C930B202346CDF800808D
:10259000FEF7CCFE43B2FF2221460D930C202346CA
:1025A0000094FEF7C3FEC3B2022221460E9311200F
:1025B00023460094FEF7BAFE234622466FF07E01C2
:1025C0005FFA80FACDF800801020FEF7AFFE43B22C
:1025D0000F9313B1404602F089FE4FF0FF33C44819
:1025E000ADF854408DF856401794C24CC4E900032E
:1025F0008023A360336A9B0703D5336A190400F173
:102600002B8100F09FFDBC49BC4804F0D2F90A219F
:10261000084600F009FC0122B949B84800F058FC0E
:1026200000F06EFDB34C204603F0EAF802460028A5
:1026300040F00F81ADF854008DF8560015A9AD4853
:1026400002F066FF08B1FFF75FFDAE4B0022A9481C
:1026500017A9179303F062F808B1FFF755FD0022A0
:102660000D9B11465B42A34803F082F902F03EFB4A
:10267000A04803F03BF900F065FD002000F028FDC4
:10268000DDE90723DDE90501FEF79EFE0021402379
:1026900001220846CDE9003280239B4A00F080FBEE
:1026A00000F02EFD4FF42F7001F032F80024E0B25C
:1026B00000F00EFD0134052001F02AF8FF2CF6D1C0
:1026C0004FF4C87001F024F800F03CFD8F4803F08F
:1026D00065F9FFF77BF8DFF838821E20FEF7C8FCAB
:1026E00001F010F8D8F80030C01AB0F5C87F0FD349
:1026F00004995846FEF780FD52460346294638465F
:10270000CDF80090FFF7DEFB00F0FCFFC8F80000FA
:1027100000F0F8FF0E9BDBB14EF660230E9A7D4C65
:1027200053432268801A834212D829463846FFF75D
:10273000AFFC04995846FEF75FFD52460346294612
:102740003846CDF80090FFF7BDFB00F0DBFF2060BE
:102750000020FEF769FC012810D1FEF795FE0499D0
:102760005846FEF749FD5246034629463846CDF8FD
:102770000090FFF7A7FBAA2000F0CAFF0020FEF799
:1027800053FC022815D1DDE90A120998FEF790FDE5
:10279000FEF74AFE04995846FEF72EFD52460346C0
:1027A00029463846CDF80090FFF78CFBAA2000F0B0
:1027B000AFFF0120FEF738FC012810D1FEF77EFEA6
:1027C00004995846FEF718FD5246034629463846F6
:1027D000CDF80090FFF776FBAA2000F099FF0120CA
:1027E000FEF722FC022861D10A20FEF741FC4A498B
:1027F000424804F0DEF800F0A5FC1B2200213F4B0C
:102800003F48FEF7C9FF00F07BFC40F2DC5000F0CF
:102810007FFFFEF719FCFEF78BFE404B1870152862
:1028200031D8DFE810F0240081008D00AF00C00037
:10283000EB0010011E012C0139014601530160011A
:10284000740181018E01AF01B301DC0115022A027E
:102850003702FFF759FCE6E6204600F0F3FD226858
:10286000536823F00103536001236374F7E62C4B94
:10287000384601930023052200936FF004010123E1
:10288000FFF7BEF847B2DDE90723DDE90501FEF7F2
:102890009BFDDDE90A120998FEF70AFD00F052FCE3
:1028A0001E4B1B78152BB6D9FEF7CEFB00F02AFF86
:1028B0001C4C2368C01A09287FF60FAF4846FEF764
:1028C000D3FF2A4639460C98FFF726F9DDE907239E
:1028D000DDE90501FEF778FDDDE90A120998FEF74A
:1028E000E7FCFEF7F7FB00F00DFF2060F5E600BF08
:1028F0000028004008030020C5B400085D02002045
:1029000014000020010101003CBA000878020020F8
:102910005402002050020020D0B400084C020020D5
:10292000DBB4000848020020B04B28460193012385
:1029300005226FF004010093FFF762F845B2A2E7A9
:1029400001270025052617AC3B462A46A021CDE9E4
:102950000176A74800948DF85C5001F04BFF1E20D3
:1029600000F0D6FE3B463A46A021CDE90176A048CC
:1029700000948DF85C5001F03DFF1E2000F0C8FE71
:102980002F4680E72B463A469A499B4803F02EFF94
:102990001B22994B00219948FEF7FEFE00F0B0FB88
:1029A00040F6340018E1964B1722019302230021D0
:1029B000009305980123FFF723F8C3B20593914BC9
:1029C0003B22019303230021009306980123FFF784
:1029D00017F88D49C3B28848069303F0EAFF1B221B
:1029E000854B00218548FEF7D7FEDDE905238749A1
:1029F000814803F0FBFE2A227F4BCBE7844B172252
:102A0000019304230021009307980123FEF7F8FFA8
:102A1000C3B207937F4B3B22019305230021009310
:102A200008980123FEF7ECFF7B49C3B27248089374
:102A300003F0BFFF1B22704B00217048FEF7ACFE75
:102A4000DDE90723D3E7754B1E22019306236FF0C0
:102A50001D01009304980123FEF7D2FF43B20493B3
:102A600011E76F4B4846019307231E2200936FF036
:102A70001D010123FEF7C4FF4FFA80F903E7694BFC
:102A8000FF2201930823009301230A981946FEF7B9
:102A9000B7FFC3B20A93F6E6634BFF220193092303
:102AA000009301230B981946FEF7AAFFC3B20B93BC
:102AB000E9E65E4B842201930D23002100930998DF
:102AC0000123FEF79DFFC3B20993DCE6584BFF22BA
:102AD00001930A23002100930C980123FEF790FF35
:102AE000C3B20C93CFE6534B002201930B236FF03C
:102AF0007E0100930D980123FEF782FF002243B26E
:102B00000D9311465B424C4802F032FFBBE64B4B43
:102B1000FF2201930C23002100930E980123FEF75E
:102B20006FFFC3B20E93AEE6454B584601930E239A
:102B30000093012300211A46FEF762FF5FFA80FB33
:102B4000A1E6002417AE0A2230463E4903F04EFEAD
:102B500023462146FF2200940F20FEF7E7FB0F23B8
:102B600021460093FF2201230196FEF749FF2246EA
:102B70000221314802F0ECFE224601212E4802F0EB
:102B8000E7FE80E60C98FFF71DF87CE600240022A3
:102B900017A9294802F00EFD2B4B1722214601935D
:102BA0009DF85C0023460094FEF72AFF274B3B224A
:102BB0002146CDE900438DF85C0023469DF85D0079
:102BC000FEF71EFF22468DF85D0017A91A488DF802
:102BD0005E4002F09DFC642000F09AFD53E616482A
:102BE00002F054FE144802F00BFE4CE6E7B4000875
:102BF0001C030020F3B400085D0200201400002034
:102C000008B5000813B5000821B500084FB4000846
:102C10002FB500083BB500084AB5000859B50008B3
:102C200065B5000872B500087FB500088CB50008CE
:102C300097B50008A3B5000808030020ACB500084C
:102C4000B8B50008C8B50008D6B50008E3B5000857
:102C5000012002F04BFB304B04460193102300226D
:102C600000936FF07E0101230F98FEF7C9FE013C2F
:102C70002A4B04445C601846B5E7294B5046019343
:102C800011230222009300210123FEF7B9FE5FFA0F
:102C900080FAF8E500F056FA0C210A2000F0C4F89A
:102CA00001222049204800F013F91B210A2000F0DE
:102CB000BBF801221B491D4800F00AF92A210A200D
:102CC00000F0B2F801221749194800F001F900F0AC
:102CD00017FA40F6340000F01BFD00F033FA0C2127
:102CE0000A2000F0A1F801220E49124800F0F0F885
:102CF0001B210A2000F098F801220A490E4800F032
:102D0000E7F82A210A2000F08FF8012205490B4834
:102D100000F0DEF842E600BFEFB50008080300202F
:102D2000FBB500081400002009B6000814B600081E
:102D30001CB6000825B600082CB6000837B60008F7
:102D400000284FF4806214BFFF210021014803F0E6
:102D5000B0BD00BFEC0300207F2830B510D83F295C
:102D60000ED80D4B0D4C1D79CB0801F0070145B174
:102D70004AB900EBC3100123225C8B401343235458
:102D800030BD012AF5D0012200EBC310235C8A403C
:102D900023EA0203F3E700BFE4030020EC03002072
:102DA0002DE9F04F00261D4683463746344687B04E
:102DB00015F10709924648BF05F10E09BDF94030EB
:102DC0009DF8442001914FEAE90939B28B4227DD91
:102DD0000AEB0601029101994FF00008394489B2CB
:102DE00017E010F0070F05BF029CC0106400245CC0
:102DF00018BFE4B220060AD50BEB080080B2CDE97B
:102E000003120593FFF7A8FFDDE90423039908F1F6
:102E100001080FFA88F08542E3DC01374E44D4E71D
:102E200007B0BDE8F08F0000014B18805980704753
:102E3000E40300202DE9F04FDFF8909085B0B9F859
:102E4000006001920A78054632447F2A0C463BDC3A
:102E5000B9F802B04A785A443F2A35DC0027A0F17D
:102E6000200303936278974207D322781644A9F887
:102E70000060284605B0BDE8F08F4FF00008039BC6
:102E8000616802FB037231F812300BEB070A029300
:102E90001FFA8AFA2278904501D30137E2E7029BB4
:102EA00006EB080003FA08F2130458BF019B5146D1
:102EB00054BFB3FA83F2019A80B258BF5209FFF7A8
:102EC0004BFF08F10108E5E70025D2E7E403002005
:102ED00070B50D461646441E14F8010F38B132463F
:102EE0002946FFF7A7FF034620788342F4D070BD40
:102EF0007F2828BF7F207F2A28BF7F223F2928BF25
:102F00003F213F2B28BF3F232DE9F04F82428CBF4A
:102F1000161A861A85B0994215461F469DF838B094
:102F200036B224D2A3EB010882420FFA88F829D9DD
:102F30004FF001094FF0010A4645DBBF08EBD8749A
:102F4000641006EBD6746442CCBF641024B23EBB5E
:102F5000B94282BF0B4639461F46A84228BF2846C1
:102F600085B209B2B94213DD05B0BDE8F08FA1EB1F
:102F7000030882420FFA88F807D84FF0FF394FF064
:102F8000FF3AD9E74FF0FF39D4E74FF00109F6E7F0
:102F90008CB221465A462846FFF7DEFE611CE0E768
:102FA000B8F1000F1ED073425A46CDE901010393D8
:102FB000FFF7D2FEDDE902130198854201D1B94243
:102FC000D2D09C42C5BFA4EB08024844224612B2AC
:102FD000C8BF80B2444503DA3244514412B289B2C8
:102FE0001446E1E7B94228BF394685428EB202D283
:102FF000034628461D4600B2A842B5DC84B22046EE
:103000005A463146FFF7A8FE601CF4E72DE9F74366
:103010007F2806460F461D469DF8288024D83F2964
:1030200022D84FF0000983187F2BC8BFC0F180025F
:1030300001EB0503C8BF92B23F2BC8BFC1F14005E9
:103040000244C8BFADB294B207EB09039BB2194664
:1030500022463046CDF8008009F10109FFF748FF0C
:103060001FFA89F39D42EFD203B0BDE8F083000060
:1030700030B50024C3B08DF80810E1B2994204F1D4
:1030800001050AD30A220133014600929BB202AA2B
:10309000054801F0D5FA43B030BD02AC0C44515C98
:1030A00061702C46E9E700BF1C0300201FB50A230E
:1030B0008DF80C108DF80D200146009303AA022311
:1030C000024801F0BDFA05B05DF804FB1C030020C6
:1030D00010B50446812200217820FFF7E7FF224641
:1030E000BDE8104000217820FFF7E0BF014620B185
:1030F000A72200217820FFF7D9BFA622FAE7000017
:1031000038B5B0240E4D224600217820FFF7CEFFBF
:10311000002278201146FFF7C9FF01341022002158
:103120007820FFF7C3FFE4B22A46802340217820AD
:10313000FFF79EFFB82C05F18005E4D138BD00BF34
:10314000EC03002008B50020FFF7FAFDBDE80840B9
:10315000FFF7D6BF70B500250120574E00F0D8FA12
:1031600044F62063012278215448757101F00EFD68
:10317000044610B1B571284670BD01252846B571C9
:1031800000F0C6FAAE2221467820FFF78FFF2022FA
:1031900021467820FFF78AFF102221467820FFF78A
:1031A00085FFB02221467820FFF780FFC822214604
:1031B0007820FFF77BFF224621467820FFF776FF35
:1031C000102221467820FFF771FF40222146782007
:1031D000FFF76CFF812221467820FFF767FFFF226F
:1031E00021467820FFF762FFA12221467820FFF7D1
:1031F0005DFFA62221467820FFF758FFA82221462E
:103200007820FFF753FF3F2221467820FFF74EFF3B
:10321000A42221467820FFF749FFD32221467820B7
:10322000FFF744FF224621467820FFF73FFFD522D3
:1032300021467820FFF73AFFF02221467820FFF759
:1032400035FFD92221467820FFF730FF2222214680
:103250007820FFF72BFFDA2221467820FFF726FFA0
:10326000122221467820FFF721FFDB222146782019
:10327000FFF71CFF202221467820FFF717FF8D2241
:1032800021467820FFF712FF142221467820FFF70D
:103290000DFFAF2221467820FFF708FF2E2221469E
:1032A0007820FFF703FF2046FFF74AFDFFF728FFCE
:1032B0003480748075715EE7E40300201C030020F5
:1032C00008B58D2200217820FFF7F0FE142200219E
:1032D0007820FFF7EBFEBDE80840AF220021782000
:1032E000FFF7E4BE08B58D2200217820FFF7DEFE4F
:1032F000102200217820FFF7D9FEBDE80840AE2259
:1033000000217820FFF7D2BE0E4B82B09A6942F0BE
:1033100001029A619A6902F001020092009ADA6948
:1033200042F08052DA61DB69074A03F0805301936F
:10333000019B536823F0E06343F08073536002B055
:10334000704700BF001002400000014030B5054644
:1033500087B01022002102A803F0ABFA2A681C4BA8
:103360009A4233D103F56C439A691A4842F40072C9
:103370009A619A6902A902F400720092009A9A690D
:10338000154C42F004029A619B69072203F0040382
:103390000193019B0323CDE9022300F0C5FD8020AA
:1033A0004FF480720023C4E903024FF480620B499A
:1033B0002046C4E90013C4E90523A360E36100F0DB
:1033C00091FC08B1FEF7A0FE2C62656207B030BD2B
:1033D0000024014000080140700300200800024062
:1033E00010B5044686B01022002102A803F061FA4D
:1033F0002268114B9A421CD1104CC022A36910487C
:1034000043F00803A361A36902A903F00803009332
:10341000009B1223CDE902230323059300F084FDD2
:10342000E36943F40013E361E36903F400130193D8
:10343000019B06B010BD00BF0054004000100240C8
:10344000000C014007B5114B02689A421AD101F0F5
:103450004DFC0F4B0320DA6942F00062DA61012271
:10346000DB6903F000630193019B0A4BC3F83C2422
:103470000022114600F0D2FB032003B05DF804EBFC
:1034800000F0FCBB03B05DF804FB00BF0028004067
:1034900000100240000042420268054B9A4206D1E9
:1034A0000022044B0320C3F83C2400F0F5BB704716
:1034B000002800400000424207B50368144A9342C6
:1034C0000CD1144B9A6942F400629A619B6903F42F
:1034D00000630093009B03B05DF804FBB3F1804FE1
:1034E000F9D103F50433DA691C2042F00102DA61F4
:1034F0000022DB69114603F001030193019B00F0F8
:103500008DFB1C2003B05DF804EB00F0B7BB00BFDF
:10351000002C014000100240FEE7000008B5FFF754
:1035200011FE1E210A20FFF77FFC012203490448F7
:10353000FFF7CEFCFFF7E4FDFEE700BF140000201C
:103540003CBE0008FEE7FEE7FEE7704770477047A5
:1035500000F0CCB8014802F0DDB900BF080300203C
:10356000014800F04DBC00BF7003002008B5FDF716
:10357000E3FCBDE80840014802F03FBA78020020B1
:103580000120704708B503F0E7F9162303604FF0F8
:10359000FF3008BD08B503F0DFF916230360FEE72E
:1035A00070B50D4614460E46731B9C4201DC204646
:1035B00070BDAFF3008006F8010BF5E770B50D465E
:1035C00014460E46731B9C4201DC204670BD16F863
:1035D000010BAFF30080F5E74FF0FF3070474FF479
:1035E000005300204B607047012070470020704757
:1035F0000B4A0346116810B509B90A4911601068F1
:1036000009490A4C0344091B8B4206D903F0A4F96B
:103610000C2303604FF0FF3010BD1360FCE700BFC8
:10362000EC070020400900200050002000040000AA
:1036300070470000FFF7FCFF0B480C490C4A0023C1
:1036400002E0D458C4500433C4188C42F9D3094A58
:10365000094C002301E013600432A242FBD303F0C3
:1036600081F9FEF7B5FD704700000020F40100204D
:1036700004C20008F401002040090020FEE7000019
:1036800038B50E4B05461A784FF47A73B3FBF2F354
:103690000B4A1068B0FBF3F000F010FB044658B979
:1036A0000F2D09D8024629464FF0FF3000F0B6FA38
:1036B0002046044B1D6038BD0120FCE7240000209B
:1036C0002000002028000020074A08B513680320C6
:1036D00043F01003136000F08FFA0F20FFF7D0FFC4
:1036E000FFF712FE002008BD00200240034A044BF1
:1036F00011681B780B441360704700BFF00700206F
:1037000024000020014B1868704700BFF00700201C
:1037100038B50446FFF7F6FF0546631C1EBF044B91
:103720001B78E418FFF7EEFF431BA342FAD338BD22
:10373000240000200048704700090101024B18686E
:10374000C0F30B00704700BF002004E0436A10B5CF
:103750009A6A12F0500F1BD19A6A42F400729A6270
:103760001A68926802F46022B2F5602F0CD11A7BBD
:1037700052B99A6A22F480729A629A6AD2045EBF3F
:103780009A6A42F001029A621846FDF7F9FF10BDED
:103790001B6ABDE810401B6B1847704708B5406AAC
:1037A000FFF7FBFF08BD7047406A08B5836A43F026
:1037B00040038362C36A43F00403C362FFF7F3FF6D
:1037C00008BD0000002373B5019390F8243004462F
:1037D000012B6CD0012380F824304D680268062D3F
:1037E000086805EB850322D81F26556B053B9E40D4
:1037F00025EA060500FA03F32B43536309288B6877
:1038000000EB40054FF0070129D9D6681E3DA940BD
:1038100026EA0101AB400B43D360A0F11003012B5A
:1038200025D90020002384F8243002B070BD0C2D6F
:103830004FF01F0509D8166B233B9D4026EA05056E
:1038400000FA03F32B431363D8E7D66A413B9D404C
:1038500026EA050500FA03F32B43D362CEE710698D
:10386000A94020EA0101AB400B431361D9E7114B9A
:103870009A4216D193681B02D3D49368102843F45C
:1038800000039360CDD10C4B0C4A1B68B3FBF2F3E1
:103890000A2253430193019B002BC2D0019B013BA1
:1038A000F8E7A36A012043F02003A362BAE70220ED
:1038B000BBE700BF002401402000002040420F0071
:1038C000002337B50193036804469A68D20702D5EE
:1038D000002003B030BD9A6842F001029A60144B98
:1038E000144A1B68B3FBF2F30193019BE3B9FFF7A2
:1038F00009FF054623689B68DB07E9D4FFF702FF51
:10390000401B0228F6D923689B6813F00103F1D10C
:10391000A26A012042F01002A262E26A84F8243016
:1039200042F00102E262D4E7019B013BDCE700BF09
:103930002000002040420F002DE9F041404B90460E
:10394000026804469A420F4602D03E498A4203D199
:103950005B6813F4702F6ED194F82430012B6CD077
:103960000123204684F82430FFF7AAFF06460028EA
:103970005DD1A56A2168334B25F4706525F00105FA
:1039800045F480759942A56204D12D4A536813F419
:10399000702F3ED1A36A23F48013A3624B685A05AB
:1039A00005D5A36A23F4405343F48053A362A36A6A
:1039B000206A13F4805318BFE36A3A4618BF23F015
:1039C0000603E362002384F824301F4B4C318362EA
:1039D0001E4BC3621E4B03636FF0020341F84C3C65
:1039E00051F8443C43F4807341F8443C434600F0B2
:1039F000ABF923689A6802F46022B2F5602F9A68E6
:103A00000CBF42F4A00242F480129A603046BDE836
:103A1000F081A36A43F48013A36253685B0541BF3E
:103A2000A06A20F4405040F48050A062BFE7002319
:103A300084F82430EAE70126E8E70226E6E700BF3B
:103A400000240140002801404D3700089D37000840
:103A5000A937000838B5036804469A68D10701D42D
:103A6000002038BD9A6822F001029A60FFF74AFEF2
:103A7000054623689B68DB07F2D5FFF743FE401B32
:103A80000228F6D923689B68DA07F2D5A36A0120D9
:103A900043F01003A362E36A43F00103E362E0E74B
:103AA000F8B5044600286DD0836A23B9C36280F854
:103AB0002430FFF74BFC2046FFF7CCFFA36A13F03E
:103AC000100361D100285FD1A26A616822F4885294
:103AD00022F0020242F00202E569A668A262227B9D
:103AE0002943B6F5807F41EA420136D0771E7D42F8
:103AF0007D412D02277D012F06D182BBA269013AAB
:103B000045EA423242F400652268B6F5807F576884
:103B100027F4694745EA0705556097681D4D05EA92
:103B2000070545EA0105956001D0012E02D1236900
:103B3000013B1B05D56A25F470052B43D3629268BF
:103B4000154B1340994213D10023E362A36A23F07B
:103B5000030343F00103A362F8BD3546CAE7A26A36
:103B600042F02002A262E26A42F00102E262CBE786
:103B7000A36A23F0120343F01003A362E36A43F045
:103B80000103E3620120E7E7A36A43F01003A362A5
:103B9000F8E700BFFDF7E1FFFE0E1FFF38B590F814
:103BA00024300446012B25D0012380F82430FFF770
:103BB00051FF0546A0B92268206A936823F48073F8
:103BC000936090F82130022B0AD100F0F9F8A36A33
:103BD00058B923F4885323F0010343F00103A3628F
:103BE000002384F82430284638BD43F040030546BE
:103BF000A362F5E70225F6E707490302CA6803F462
:103C0000E06322F4E0621204120C134343F0BF633A
:103C100043F40033CB60704700ED00E0154B30B546
:103C2000DC68C4F30224C4F10703251D042B28BF5C
:103C30000423062D4FF0FF3594BF0024033C05FA02
:103C400003F321EA0303A54022EA0502A34000286A
:103C500043EA0203ACBF00F16040074A4FEA031396
:103C6000DBB2ABBF00F5614000F00F0080F800331D
:103C7000135430BD00ED00E014ED00E0002807DB38
:103C800001234109034A00F01F00834042F821301C
:103C9000704700BF00E100E000280CDB012206496C
:103CA000430900F01F008240203341F82320BFF376
:103CB0004F8FBFF36F8F704700E100E00138B0F124
:103CC000807F0BD24FF0E023F021054A586182F843
:103CD00023100020072298611A6170470120704765
:103CE00000ED00E0034610B540B314210068144A0B
:103CF0000244B2FBF1F292001A64124ADA63022221
:103D000083F82120D3E901242243DC68016822439F
:103D10001C6921F47F5122435C6921F03001224368
:103D20009C692243DC6922430A430260002001228D
:103D3000986383F8200083F8212010BD0120FCE760
:103D4000F8FFFDBF00000240F0B590F82040012CC4
:103D500034D0012480F8204090F82140012CE5B2B5
:103D60004FF0000428D1022680F8216084630468A3
:103D7000266826F001062660D0E90F67BD40756011
:103D800063604368102BC36A0BBFA260A160E1604F
:103D9000E2604BB1236843F00E03002023602368E8
:103DA00043F001032360F0BD236823F00403236084
:103DB000236843F00A03F0E780F820400220F2E78E
:103DC00090F821200346022A06D0042282630120B3
:103DD000002283F8202070470268C06B116821F030
:103DE0000E011160116821F00101116001211A6CAE
:103DF00001FA02F24260002083F82110E8E7000097
:103E000070B40425C66B026C346803689540254283
:103E1000196832D04D0730D51A6896065EBF1A6809
:103E200022F004021A603E4A934219D0143293429F
:103E300018D01432934217D01432934217D0143250
:103E4000934217D01432934214BF4FF080634FF463
:103E50008003344A5360C36A002B5ED070BC18479D
:103E60000423F6E74023F4E74FF48063F1E74FF4CF
:103E70008043EEE74FF48023EBE70225954025428F
:103E800035D08D0733D51A68940606D41A6822F007
:103E90000A021A60012280F82120214A934219D097
:103EA0001432934218D01432934217D014329342F2
:103EB00017D01432934217D01432934214BF4FF0EC
:103EC00000734FF40013174A5360002380F820302A
:103ED000836AC1E70223F6E72023F4E74FF4007377
:103EE000F1E74FF40053EEE74FF40033EBE708251A
:103EF0009540254211D009070FD5196821F00E0110
:103F00001960012303FA02F27260836380F82130A2
:103F1000002380F82030036B9EE770BC704700BF21
:103F200008000240000002402DE9F74F0024264619
:103F3000DFF888C1624BDFF88CE1DFF88C810A681A
:103F400032FA06F502D103B0BDE8F08F0127B74081
:103F500002EA070537EA02027AD14A68032A07D83B
:103F6000013A022A00F28380DFE802F092979D0076
:103F7000122A00F095806DD8112A00F08B80FF2D59
:103F800098BF81464FF00F0B88BF00F104094FEA3C
:103F90008602D9F8007088BF203A0BFA02FA27EAA5
:103FA0000A0704FA02F21743C9F80070D1F8049026
:103FB00019F0805F4CD0DCF8182026F0030742F09F
:103FC0000102CCF81820DCF8182007F1804702F035
:103FD0000102019207F5803706F0030A019A4FEAC1
:103FE0008A0ABA680BFA0AFB22EA0B0B374A90429C
:103FF0005DD002F5806290425BD002F58062904213
:1040000059D002F58062904214BF0422032202FAC2
:104010000AF242EA0B02BA609A6819F4801F14BFD0
:104020002A43AA439A60DA6819F4001F14BF2A438E
:10403000AA43DA605A6819F4003F14BF2A43AA431E
:104040005A601A6819F4803F14BF2A43AA431A60C1
:10405000013674E7DFF878904A4508D010D8A9F502
:1040600080194A4503D0724501D0424587D18A68FC
:10407000DAB1012A4FF008040CBF076147617EE7FF
:10408000DFF850904A45F2D009F580394A45EDE70E
:10409000CC6874E7CC68043471E7CC6808346EE708
:1040A000CC680C346BE7002469E7042467E700223E
:1040B000ADE70122ABE70222A9E700BF00100240F2
:1040C0000004014000002110000011100008014010
:1040D00000002210000031108368194214BF012033
:1040E000002070470AB1016170470904FBE70168CD
:1040F00000224B6913F4806310D06FF480634B612E
:104100002023026380F83D3080F83E20036C80F865
:104110003C2043F0040303640120704718467047B5
:104120002DE9F84606460F4691461D464FEA114ACC
:104130003368BAF1010F0CBF5C699C6927EA04047B
:10414000A4B2B4FA84F46409A14501D0002025E0AA
:104150006A1CEED0FFF7D6FA089BC01AA84201D815
:10416000002DE5D13368BAF1010F0CBF5B699B6983
:1041700027EA03039BB2B3FA83F35B099945D7D1CE
:10418000002320220120336386F83D2086F83E304C
:10419000326C86F83C3042F020023264BDE8F8868A
:1041A0002DE9F04104460F46164698462568686991
:1041B00027EA000080B2C0B16B695A0517D52B6899
:1041C000202243F400732B606FF480636B61002343
:1041D000236384F83D2084F83E30236C43F00403CD
:1041E00023640023012084F83C30BDE8F081731C77
:1041F000DDD0FFF787FAA0EB0800B04201D8002E0F
:10420000D4D123685A6927EA020292B2002ACDD09B
:1042100000232022236384F83D2084F83E30236C61
:104220001343DDE770B504460D46164623685B6907
:104230001B0601D500201EE02046FFF758FFC8B935
:104240006A1CF3D0FFF75EFA801BA84201D8002D4C
:10425000ECD123685B6913F08003E7D1202223634C
:1042600084F83D2084F83E30226C84F83C3042F0E3
:1042700020022264012070BD2DE9F043154602683A
:104280009946136885B043F480731360DDE90C78B8
:104290000E463B4600224FF00111CDF80080044647
:1042A000FFF73EFF236838B11B68DB0502D54FF4EA
:1042B00000732364032620E006F0FE061E613A46E2
:1042C000434620461849FFF76BFFA8B923680390BF
:1042D0005A69394603929B69424603932046039BE1
:1042E000FFF7A0FF064660B1236C042B01BF2268D4
:1042F000136843F4007313600126304605B0BDE82F
:10430000F083B9F1010F236802D1EDB21D61F4E72A
:104310002A0A1A61394642462046FFF783FF0028E1
:10432000E2D12368F1E700BF020001002DE9FF4759
:104330009A46DDE90C78036815461A680E4642F481
:1043400080621A601A684FF0011142F480721A609C
:104350003B460022CDF800800446FFF7E1FE2368CB
:1043600048B11B68DB0548BF4FF400734FF00300F2
:1043700048BF236421E05FFA86F906F0FE061E615D
:104380003A46434620462A49FFF70AFFA0B9236868
:1043900003905A69394603929B694246039320462B
:1043A000039BFFF73FFF58B1236C042B01BF22682A
:1043B000136843F400731360012004B0BDE8F08774
:1043C000BAF1010F23681AD1EDB2424639462046B0
:1043D0001D61FFF727FF02460028E5D1216820462E
:1043E0000B6843F480730B603B464FF00111CDF82E
:1043F0000080FFF795FE226860B11368B2E72A0AD1
:104400001A61394642462046FFF70CFF0028CBD1FF
:104410002368D9E749F001031361204643463A4631
:104420000349FFF7BDFE003818BF0120C5E700BFF4
:104430000200010070B504460D46164623685B690C
:104440005B0701D500201EE02046FFF750FEC8B9EB
:104450006A1CF3D0FFF756F9801BA84201D8002D43
:10446000ECD123685B6913F00403E7D120222363B6
:1044700084F83D2084F83E30226C84F83C3042F0D1
:1044800020022264012070BD70B504460D46164618
:1044900021684B6913F0400301D0002011E04A6904
:1044A000D2060FD56FF010024A612022236384F8F0
:1044B0003D2084F83E30236C23640023012084F8DF
:1044C0003C3070BDFFF71EF9801BA84201D8002DBB
:1044D000DED123685B6913F04003D9D12022236326
:1044E00084F83D2084F83E30236C1343E4E7000059
:1044F00070B5044608B9012070BD90F83D3003F056
:10450000FF021BB980F83C20FEF76AFF242384F8E1
:104510003D3023681A6822F001021A601A6842F4DA
:1045200000421A601A6822F400421A6000F044FE49
:104530003F4B65689D4294BF3E4B3F4B98428CBFBA
:1045400000230123002BD6D1394E3C4BB542B0FBA2
:10455000F3F388BF4FF496762268516821F03F014B
:1045600041EA030182BF73434FF47A76B3FBF6F35B
:104570005160116A013321F03F010B431362D1698D
:10458000431E2B4821F44F41854221F0FF0132D8D0
:104590006D00B3FBF5F340F6FC700133034242D0EB
:1045A000C3F30B031943D1611168D4E9073021F03B
:1045B000C00103430B4313609168D4E9030321F462
:1045C0000341034321F0FF010B439360D168D4E919
:1045D000053021F0FF0103430B43D3601368002033
:1045E00043F0010313602023206484F83D302063EE
:1045F00084F83E0080E7A06850B905EB4505B3FBA1
:10460000F5F30133C3F30B037BB143F40043C9E774
:1046100019206843B3FBF0F30133C3F30B0323B159
:1046200043F44043BEE70423BCE70123BAE700BFDD
:10463000A08601007F841E00FF083D0040420F005D
:104640002DE9F043044685B098460D4691460C9FEF
:10465000FFF758F894F83D300646202B04D0022589
:10466000284605B0BDE8F0830090192301222046BA
:104670005C49FFF755FD0028F1D194F83C30012B3F
:10468000EDD00123216884F83C300B68DA075EBF67
:104690000B6843F001030B600B6823F400630B60AD
:1046A000212384F83D30102384F83E300023236416
:1046B000A4F82A80638DC4F8249023854A4BE362D2
:1046C000E36A082B04D0012B02D013F5803F04D1FC
:1046D0000B6843F480730B6002E0236B122BF7D05E
:1046E00000223B464FF0011120460096FFF718FDCF
:1046F000226840B11368DB0501D40125B0E74FF40F
:1047000000732364F9E72369B3F5804F21D105F0E5
:10471000FE05156133463A4620463449FFF740FD11
:1047200005460028E9D1236803905A6903929B69E2
:104730000393039B238DF3B921680A6842F4007246
:104740000A60202284F83C3084F83D2084F83E3012
:1047500086E7EB1103F0060343F0F00313612046F4
:1047600033463A462249FFF71BFD0028C5D123688E
:10477000EDB21D61CEE7324639462046FFF752FDC5
:1047800040B1236C042BB8D12268136843F4007342
:104790001360B2E7636A20681A4612F8011B0161D0
:1047A0006262628D013A92B26285228DD0F814C0A5
:1047B000511E89B21CF0040F21850AD049B15978E5
:1047C000023301616362638D023A013B9BB26385F0
:1047D0002285324639462046FFF72CFE0028A9D014
:1047E000CFE700BF020010000000FFFF0200010041
:1047F000080001002DE9F743044699460F4690460C
:104800000C9EFEF77FFF94F83D300546202B03D029
:10481000022003B0BDE8F083009019230122204656
:104820003A49FFF77DFC0028F2D194F83C30012B87
:10483000EED00123206884F83C3003684246D90753
:1048400058BF036839465CBF43F001030360036847
:1048500023F400630360212384F83D30402384F86F
:104860003E30002323640A9B20466362BDF82C304F
:104870006385638D2385264BE3624B46CDE9006556
:10488000FFF7FAFC00282AD00120C2E7FFF7CAFC94
:1048900040B1236C042B01BF2268136843F40073FA
:1048A0001360F1E7636A27681A4612F8011B396141
:1048B0006262628D218D013A92B262857A69481EE8
:1048C00080B2520720850AD548B15A7802333A613E
:1048D0006362638D0239013B9BB221856385238D21
:1048E0002A4631462046002BD0D1FFF7A3FD0028F1
:1048F000CFD12268136843F400731360202384F837
:104900003C0084F83D3084F83E0082E7020010004D
:104910000000FFFF2DE9F04399460023044689B0CB
:1049200003930D469046129FFEF7ECFE94F83D303F
:104930000646202B04D00225284609B0BDE8F083A6
:1049400000901923012220468C49FFF7E9FB00283B
:10495000F1D194F83C30012BEDD00123206884F88C
:104960003C3003682946DB0758BF036842465CBFFA
:1049700043F001030360036823F400630360222310
:1049800084F83D30402384F83E3000232364109B9C
:1049900020466362BDF844306385638D2385784B80
:1049A000E3624B46CDE90076FFF7C0FC05460028E0
:1049B00040F0BA80228D2368C2B904905A690492EB
:1049C0009A690492049A1A6842F400721A60DFF835
:1049D000B481DFF8B491238D002B37D1202284F8E5
:1049E0003C3084F83D2084F83E30A5E7012A11D1FF
:1049F0001A6822F480621A6072B6236805905A69B8
:104A000005929A690592059A1A6842F400721A6032
:104A100062B6DCE7022A1A680ED142F400621A601C
:104A200072B6236806905A6906929A690692069AA7
:104A30001A6822F48062EAE742F480621A60079002
:104A40005A6907929B690793079BC0E7032B78D8A5
:104A5000012B15D1324639462046FFF715FD0028B7
:104A600062D123681A69636A1A70636A01336362E8
:104A7000238D013B2385638D013B9BB26385AAE7B0
:104A8000022B4FF000023B4641462046009618D1CB
:104A9000FFF746FB002847D172B623681A6842F434
:104AA00000721A601A69636A1A70636A013363627A
:104AB000238D013B2385638D013B9BB2638562B6E9
:104AC000CFE7FFF72DFB00282ED12268136823F4CF
:104AD0008063136072B646F2A81123681A69636A8C
:104AE0001A70626A531C6362238D013B2385638DB8
:104AF000013B9BB26385D9F80030B3FBF1F323216E
:104B00004B430393039B013B0393039B73B9202205
:104B1000236384F83D2084F83E30226C42F020026A
:104B2000226462B684F83C30012505E723685969A0
:104B30004807E7D5196841F4007119601B69537083
:104B4000B3E7324639462046FFF79EFC0028EBD1FA
:104B500023681A69636A1A70626A531C6362238D40
:104B6000013B2385638D013B9BB2638523685969B3
:104B700049077FF530AF1B69537076E702001000DC
:104B80000000FFFF04000100200000202DE9F04F8D
:104B9000044685B01F4688469246FEF7B3FD94F85A
:104BA0003D300546202B03D0022005B0BDE8F08F34
:104BB00000901923012220464A49FFF7B1FA002844
:104BC000F2D194F83C30012BEED0012384F83C3034
:104BD000236800261A68DFF80CB1D20758BF1A689C
:104BE00008F0FE085CBF42F001021A601A6822F465
:104BF00000621A60242384F83D303B4B2664E36254
:104C000022684FF001111368204643F4807313604B
:104C10003B4600220095FFF783FA236838B11B68F2
:104C20000320DB0544BF4FF400732364BDE7C3F8E2
:104C30001080FEF767FD4FF0A009054623685A690A
:104C40005B69C2F34002C3F3802394F83D10A029AE
:104C500001D013431DD04FF02009236884F83D9004
:104C60005A6912F0020F1A6842F400721A6025D0D5
:104C7000002203925A69204603929B690122039302
:104C8000039B184919230095FFF74AFA88B10120C0
:104C90008BE7FEF737FD401BB84200D80FB984F808
:104CA0003D9023685A695B69C2F34002C3F38023D5
:104CB000CBE784F83D9084F83C0076E76FF480629F
:104CC00059465A612046192301220095FFF728FA18
:104CD0000028DCD10136564592D384F83D9084F803
:104CE0003C00D4E7020010000000FFFF0122014B4E
:104CF0001A62704700000E422DE9F341054638B3B1
:104D00000368DB0710D42B689F0760D42B68190752
:104D100000F197802B685A0700F1C380EB69002BE4
:104D200040F02E8100202AE0914C636803F00C03D0
:104D3000042B07D0636803F00C03082B0AD16368C7
:104D4000DE0307D523689C03DDD56B68002BDAD121
:104D5000012014E06B68B3F5803F13D1236843F45E
:104D600080332360FEF7CEFC064623689803CAD43E
:104D7000FEF7C8FC801BB0F5FA7FF6D9032002B01D
:104D8000BDE8F081A3B9236823F48033236023684E
:104D900023F480232360FEF7B5FC064623689903BD
:104DA000B1D5FEF7AFFC801BB0F5FA7FF6D9E5E789
:104DB000B3F5A02F236803D143F480232360CDE70C
:104DC00023F480332360236823F48023C9E7684CED
:104DD000636813F00C0F07D0636803F00C03082B13
:104DE00010D16368DA030DD423689B0702D52B69C1
:104DF000012BADD123686A6923F0F80343EAC203AB
:104E0000236083E72A695B4B6AB101221A60FEF7CF
:104E100079FC064623689F07ECD4FEF773FC801BE1
:104E20000228F7D9AAE71A60FEF76CFC0646236849
:104E300098077FF56BAFFEF765FC801B0228F6D95B
:104E40009CE7AA694A4E4B4BE2B10122C3F8802489
:104E5000FEF758FC0446736A9B070DD54FF4FA52CF
:104E6000454B1B68B3FBF2F3019300BF019B5A1E35
:104E70000192002BF9D14DE7FEF744FC001B0228FC
:104E8000E9D97BE7C3F88024FEF73CFC0446736A4B
:104E90009F077FF53FAFFEF735FC001B0228F6D9D0
:104EA0006CE7334CE369D80024D40127E36943F06D
:104EB0008053E361E36903F080530093009B2F4E1E
:104EC0003368D90518D5EB68012B26D1236A43F046
:104ED00001032362FEF716FC44F620680646236AA7
:104EE0009B073FD5002F3FF419AFE36923F08053B0
:104EF000E36113E70027E2E7336843F4807333602C
:104F0000FEF700FC80463368DA05DCD4FEF7FAFBD6
:104F1000A0EB08006428F6D930E7ABB9236A44F661
:104F2000206823F001032362236A23F00403236231
:104F3000FEF7E8FB0646236A9807D3D5FEF7E2FBA7
:104F4000801B4045F7D919E7052B236A03D143F0AD
:104F500004032362BAE723F001032362236A23F0E8
:104F60000403B6E7FEF7CEFB801B4045B7D905E743
:104F7000001002400000424220000020007000406B
:104F80002A4C626802F00C02082A3ED00022022B52
:104F9000274B1A662CD1FEF7B5FB0646236899010C
:104FA00020D42B6AB3F5803F05D16268A96822F44A
:104FB00000320A436260696A62680B4322F4741229
:104FC0001343012263601A4B1A66FEF79BFB0546EA
:104FD00023689A013FF5A6AEFEF794FB401B02281A
:104FE000F6D9CBE6FEF78EFB801B0228D6D9C5E6A4
:104FF000FEF788FB054623689B017FF593AEFEF71D
:1050000081FB401B0228F6D9B8E6012B3FF4A0AE85
:1050100060682B6A00F480329A427FF499AE6B6A22
:1050200000F47010C01A18BF0120A8E6001002405A
:10503000000042420D4A536803F00C01082912D1C6
:105040000B48C3F38341DB03405C09D55368094A2D
:10505000C3F340435043084AD35CB0FBF3F07047BE
:10506000064B584370470348704700BF001002408A
:1050700061BE000800127A005FBE000800093D0012
:105080002DE9F0410D46044610B90120BDE8F0813C
:10509000444A136803F007038B4228D321688E0724
:1050A00030D4CA0743D43F4A136803F00703AB4226
:1050B00065D822683C4D12F0040F6CD1130706D559
:1050C0006B68226923F4605343EAC2036B60FFF705
:1050D000B1FF6B68354AC3F30313D35CD840344B3C
:1050E0001860344B1868FEF7CBFA0020CEE713683F
:1050F00023F007030B431360136803F007038B428D
:10510000C3D1CBE7284B11F0040F1EBF5A6842F4FD
:10511000E0625A60080742BF5A6842F460525A601F
:105120005A68A06822F0F00202435A60B9E7626848
:105130001D4E012A33681AD113F4003FA5D07368BD
:1051400041F2883823F0030313437360FEF7DAFA61
:1051500007467368626803F00C03B3EB820FA2D0BA
:10516000FEF7D0FAC01B4045F3D903208EE7022A90
:1051700002D113F0007FE1E713F0020FDEE71368BE
:1051800023F007032B431360136803F00703AB42BC
:105190007FF47BAF8DE76B68E16823F4E0630B433A
:1051A0006B608BE700200240001002404FBE0008F9
:1051B0002000002028000020044B054A5B68C3F350
:1051C0000223D35C034A1068D840704700100240A5
:1051D00047BE000820000020044B054A5B68C3F36B
:1051E000C223D35C034A1068D840704700100240C5
:1051F00047BE00082000002003682DE9F341054662
:10520000D80721D5364CE369D9002BD40126E369B0
:1052100043F08053E361E36903F080530193019B02
:10522000304F3B68DA051FD5236A6A6813F4407370
:105230002ED1236A6A6823F44073134323621EB19C
:10524000E36923F08053E3612A68910706D5244976
:10525000A8684B6823F4404303434B60D30636D41D
:10526000002012E00026DBE73B6843F480733B60DC
:10527000FEF748FA80463B68DB05D5D4FEF742FAD4
:10528000A0EB08006428F6D9032002B0BDE8F08145
:1052900002F440729A42CCD00120134A236AC2F829
:1052A0004004002023F44071DF07C2F8400421626B
:1052B000BFD5FEF727FA44F620680746236A980709
:1052C000B7D4FEF71FFAC01B4045F7D9DCE7044A04
:1052D000E968536823F480030B435360C0E700BFC1
:1052E000001002400070004000004242022808B551
:1052F00044D0102803D0012822D0002034E0254BD0
:105300005A68186810F080702ED0C2F3834122488A
:10531000D20348BF5A68405C41BF2049C2F34042B3
:10532000895C1F4A5B684CBFB2FBF1F21D4A5B020D
:1053300002FB00F018D403234000B0FBF3F013E0AD
:1053400040F20231134A136A1940B1F5817F1ED031
:1053500003F44073B3F5007F07D149F64043506A28
:1053600010F0020018BF184608BDB3F5407FC4D145
:1053700010684FF2244310F40030F3E7FFF72CFFDE
:10538000044B5B68C3F3813301335B00D5E74FF413
:105390000040E9E70010024073BE000871BE00083B
:1053A00000127A0000093D00036830B59A69D86997
:1053B000996995B28CB2A54217BFD86980B280B204
:1053C00040EA014008BF40EA024030BD0368186A65
:1053D0005B6A9BB243EA004070470023092803D868
:1053E00040EA0310C0B270470A380133C0B2F5E793
:1053F0000A22030900F00F0002FB0300C0B270474D
:1054000030B5172509234D430229B5FBF3F500F507
:10541000FA6417D800F2CF73101D4FF4C872B3FBB3
:10542000F2F22044284400EB930010446422B3FBC2
:10543000F2F3C01A0723B0FBF3F3C3EBC303C01AA4
:10544000C0B230BD4FF4C873B4FBF3F3901C2044DA
:10545000284400EB940018446423B4FBF3F4001BCD
:10546000E8E738B50446FEF74DF9054623685A6863
:10547000920605D500205A6842F010025A6038BDE5
:10548000FEF740F9401BB0F57A7FEFD90320F6E72D
:10549000026838B55368044623F010035360FEF7E2
:1054A00031F9054623685B689B0601D5002038BDAD
:1054B000FEF728F9401BB0F57A7FF3D90320F6E711
:1054C00038B505460C46FFF7CCFF58B92B68220CBF
:1054D000A4B29A612846DC61FFF7DAFF003818BFF2
:1054E000012038BD0120FCE738B505460C46FFF722
:1054F000B8FF58B92B68220CA4B21A6228465C6225
:10550000FFF7C6FF003818BF012038BD0120FCE7B7
:10551000F8B50446E8B1E1B1037C0226012B19D0AD
:1055200001234674037408784D788F78A2B93C2320
:105530005D434FF4616303FB00553D44294620461B
:10554000FFF7BEFF07460646C0B10423637400237D
:10555000237401263046F8BDFFF74AFF0646284669
:10556000FFF746FF3C2303FB00F14FF4616338462D
:1055700003FB0611FFF73CFF4518DFE722682046D2
:10558000536823F005035360FFF720FF85420BD9D2
:1055900000F5A83101F5C0712046FFF7A5FF18B14D
:1055A000042327746374D4E70123637400232374F2
:1055B000D0E700002DE9F0470E461746054610B922
:1055C0000120BDE8F0870029FAD003685B6813F07A
:1055D0000408F5D1FFF7E8FE4FF46163B0FBF3F286
:1055E000044603FB12033C20B3FBF0F100FB113334
:1055F000B370484B71709C427CD91823B2FBF3F90D
:1056000003FB192228463270FFF7E0FEB0F1FF3F9E
:10561000824605D084422CBF4FF0FF3AA0EB040A2B
:105620003D4B284603FB19442146FFF749FF00285C
:10563000C6D1BAF1FF3F28D00AEB04012846FFF794
:1056400053FF0028BCD1012141F2AA5CE87B6C7BAE
:10565000AB7B0C2C09D801FA04F212EA0C0F16D11C
:1056600012F4256F20D1022C21D008F10108C14588
:10567000EFD1E1B2DAB2E8736973AA73FFF7C0FE43
:105680002873002F38D100209BE75146D6E71E2B08
:1056900001D80133E9E70C2C02D001230134E4E7FF
:1056A000012301301C46E0E71D2BF6D8F1E71B2B48
:1056B000EFD91C2B17D1820783B216D14FF0640E9D
:1056C000B3FBFEF20EFB123292B28AB94FF4C872EB
:1056D000B3FBF2FE02FB1E339BB2002B0EBF1D2359
:1056E00001230324C1E71D2BBFD101230324BCE701
:1056F0001D23BAE73270C4E73078FFF76EFE3070D2
:105700007078FFF76AFE7070B078FFF766FEB070D1
:10571000B9E700BF7F5101008051010070B50D460F
:10572000044648B341B3037C0220012B25D001235A
:1057300060742374C8780ABBE0734B7863738A780B
:10574000617BE07BA273FFF75BFE2073287020462D
:10575000FFF72AFE1A4B98422DD91A4DB0FBF5F2ED
:1057600005FB120520462946FFF7AAFE064688B12A
:105770000423637400232374012070BDFFF738FEF7
:10578000E0734878FFF734FE60738878FFF730FEE7
:105790000246D5E72046FFF719FE85420BD900F5F2
:1057A000A83101F5C0712046FFF79EFE18B1042311
:1057B00026746374E0E70123002063742074DCE73F
:1057C0008F5F01008051010038B50446A8B102681E
:1057D000536823F008035360FDF794FF05462368E0
:1057E0005B681B0701D5002038BDFDF78BFF401B10
:1057F000B0F57A7FF3D90320F6E70120F4E7000043
:1058000010B5044670B1437C03F0FF0213B9027473
:10581000FDF718FE022320466374FFF7D5FF18B189
:1058200004236374012010BD2046FFF71AFE0028F0
:10583000F6D12268A168536823F007035360124A27
:1058400019B1136B23F001031363D36A23F460735C
:105850000B43D3626068431C05D10120FFF746FD6E
:105860000028DDD001382368C0F3034280B29A607B
:10587000D8602046FFF70CFE0028D1D101236373C6
:10588000E3816374CFE700BF006C004070B504464D
:1058900048B102234374FFF7E4FD054630B1042309
:1058A0006374002323740126304670BD4FF4004218
:1058B0002368D8619861DA60986018605860204663
:1058C000FFF7E6FD064618B1042325746374EAE782
:1058D0002046FFF779FF22682046536823F008032B
:1058E0005360FDF7D9FD66742674DDE7034670B199
:1058F000027C0220012A0BD0196858740A68002023
:1059000042F001020A60012218745A7470470120A3
:1059100070477047036810B51A680446D10712D55E
:105920005A68D2070FD55B685B070DD5FFF7F1FF0B
:105930006FF0040223685A6004232268637453687A
:1059400023F00103536010BDFBF798FB0123F4E73C
:10595000890001F1804101F5D84192B20A60704797
:10596000890001F1804101F5D841086880B2704793
:10597000024678B1017C022001290CD050740648FF
:10598000C16A21F07F010B43C362012300205374DD
:105990001074704701207047006C004090F83D3053
:1059A000012B20D1022380F83D300368DA6842F0F1
:1059B0000102DA600D4A93420AD0B3F1804F07D05A
:1059C000A2F59432934203D002F58062934204D14F
:1059D0009A6802F00702062A03D01A6842F0010210
:1059E0001A60002070470120704700BF002C014062
:1059F00070477047704770477047036810B51A6961
:105A0000044691070ED5DA6892070BD56FF00202B3
:105A10001A61012202779B699B0777D0FFF7EAFFA3
:105A20000023237723681A69500710D5DA685107D5
:105A30000DD56FF004021A61022222779B6920467D
:105A400013F4407F68D0FFF7D5FF00232377236846
:105A50001A6912070FD5DA6810070CD56FF0080223
:105A60001A6104222277DB69204699075AD0FFF792
:105A7000C1FF0023237723681A69D20610D5DA689C
:105A8000D0060DD56FF010021A6108222277DB696B
:105A9000204613F4407F4BD0FFF7ACFF0023237761
:105AA00023681A69D10708D5DA68D20705D56FF0DF
:105AB000010220461A61FFF79BFF23681A6910064E
:105AC00008D5DA68110605D56FF0800220461A6104
:105AD00000F06DF923681A69520608D5DA68500695
